{
    "_format": "hh-sol-artifact-1",
    "contractName": "TokenizedBallot",
    "sourceName": "contracts/TokenizedBallot.sol",
    "abi": [
        {
            "inputs": [
                {
                    "internalType": "bytes32[]",
                    "name": "_proposalNames",
                    "type": "bytes32[]"
                },
                {
                    "internalType": "address",
                    "name": "_tokenContract",
                    "type": "address"
                },
                {
                    "internalType": "uint256",
                    "name": "_targetBlockNumber",
                    "type": "uint256"
                }
            ],
            "stateMutability": "nonpayable",
            "type": "constructor"
        },
        {
            "inputs": [
                {
                    "internalType": "address",
                    "name": "voter",
                    "type": "address"
                }
            ],
            "name": "getVotePower",
            "outputs": [
                {
                    "internalType": "uint256",
                    "name": "votePower_",
                    "type": "uint256"
                }
            ],
            "stateMutability": "view",
            "type": "function"
        },
        {
            "inputs": [
                {
                    "internalType": "uint256",
                    "name": "",
                    "type": "uint256"
                }
            ],
            "name": "proposals",
            "outputs": [
                {
                    "internalType": "bytes32",
                    "name": "name",
                    "type": "bytes32"
                },
                {
                    "internalType": "uint256",
                    "name": "voteCount",
                    "type": "uint256"
                }
            ],
            "stateMutability": "view",
            "type": "function"
        },
        {
            "inputs": [],
            "name": "targetBlockNumber",
            "outputs": [
                {
                    "internalType": "uint256",
                    "name": "",
                    "type": "uint256"
                }
            ],
            "stateMutability": "view",
            "type": "function"
        },
        {
            "inputs": [],
            "name": "tokenContract",
            "outputs": [
                {
                    "internalType": "contract IMyToken",
                    "name": "",
                    "type": "address"
                }
            ],
            "stateMutability": "view",
            "type": "function"
        },
        {
            "inputs": [
                {
                    "internalType": "uint256",
                    "name": "proposal",
                    "type": "uint256"
                },
                {
                    "internalType": "uint256",
                    "name": "amount",
                    "type": "uint256"
                }
            ],
            "name": "vote",
            "outputs": [],
            "stateMutability": "nonpayable",
            "type": "function"
        },
        {
            "inputs": [
                {
                    "internalType": "address",
                    "name": "",
                    "type": "address"
                }
            ],
            "name": "votePowerSpent",
            "outputs": [
                {
                    "internalType": "uint256",
                    "name": "",
                    "type": "uint256"
                }
            ],
            "stateMutability": "view",
            "type": "function"
        },
        {
            "inputs": [],
            "name": "winnerName",
            "outputs": [
                {
                    "internalType": "bytes32",
                    "name": "winnerName_",
                    "type": "bytes32"
                }
            ],
            "stateMutability": "view",
            "type": "function"
        },
        {
            "inputs": [],
            "name": "winningProposal",
            "outputs": [
                {
                    "internalType": "uint256",
                    "name": "winningProposal_",
                    "type": "uint256"
                }
            ],
            "stateMutability": "view",
            "type": "function"
        }
    ],
    "bytecode": "0x608060405234801561001057600080fd5b506040516112e33803806112e383398181016040528101906100329190610387565b816000806101000a81548173ffffffffffffffffffffffffffffffffffffffff021916908373ffffffffffffffffffffffffffffffffffffffff1602179055508060038190555043600354106100bd576040517f08c379a00000000000000000000000000000000000000000000000000000000081526004016100b490610479565b60405180910390fd5b60005b835181101561014757600160405180604001604052808684815181106100e9576100e8610499565b5b60200260200101518152602001600081525090806001815401808255809150506001900390600052602060002090600202016000909190919091506000820151816000015560208201518160010155505080806001019150506100c0565b505050506104c8565b6000604051905090565b600080fd5b600080fd5b600080fd5b6000601f19601f8301169050919050565b7f4e487b7100000000000000000000000000000000000000000000000000000000600052604160045260246000fd5b6101b282610169565b810181811067ffffffffffffffff821117156101d1576101d061017a565b5b80604052505050565b60006101e4610150565b90506101f082826101a9565b919050565b600067ffffffffffffffff8211156102105761020f61017a565b5b602082029050602081019050919050565b600080fd5b6000819050919050565b61023981610226565b811461024457600080fd5b50565b60008151905061025681610230565b92915050565b600061026f61026a846101f5565b6101da565b9050808382526020820190506020840283018581111561029257610291610221565b5b835b818110156102bb57806102a78882610247565b845260208401935050602081019050610294565b5050509392505050565b600082601f8301126102da576102d9610164565b5b81516102ea84826020860161025c565b91505092915050565b600073ffffffffffffffffffffffffffffffffffffffff82169050919050565b600061031e826102f3565b9050919050565b61032e81610313565b811461033957600080fd5b50565b60008151905061034b81610325565b92915050565b6000819050919050565b61036481610351565b811461036f57600080fd5b50565b6000815190506103818161035b565b92915050565b6000806000606084860312156103a05761039f61015a565b5b600084015167ffffffffffffffff8111156103be576103bd61015f565b5b6103ca868287016102c5565b93505060206103db8682870161033c565b92505060406103ec86828701610372565b9150509250925092565b600082825260208201905092915050565b7f4572726f723a2074617267657420626c6f636b206e756d626572206973206e6f60008201527f7420696e20746865207061737400000000000000000000000000000000000000602082015250565b6000610463602d836103f6565b915061046e82610407565b604082019050919050565b6000602082019050818103600083015261049281610456565b9050919050565b7f4e487b7100000000000000000000000000000000000000000000000000000000600052603260045260246000fd5b610e0c806104d76000396000f3fe608060405234801561001057600080fd5b50600436106100885760003560e01c80639e90d0d91161005b5780639e90d0d914610118578063b384abef14610148578063bb9c092014610164578063e2ba53f01461019457610088565b8063013cf08b1461008d5780632a8cd29e146100be57806355a373d6146100dc578063609ff1bd146100fa575b600080fd5b6100a760048036038101906100a291906108ca565b6101b2565b6040516100b592919061091f565b60405180910390f35b6100c66101e6565b6040516100d39190610948565b60405180910390f35b6100e46101ec565b6040516100f191906109e2565b60405180910390f35b610102610210565b60405161010f9190610948565b60405180910390f35b610132600480360381019061012d9190610a3b565b610292565b60405161013f9190610948565b60405180910390f35b610162600480360381019061015d9190610a68565b6102aa565b005b61017e60048036038101906101799190610a3b565b610391565b60405161018b9190610948565b60405180910390f35b61019c610589565b6040516101a99190610aa8565b60405180910390f35b600181815481106101c257600080fd5b90600052602060002090600202016000915090508060000154908060010154905082565b60035481565b60008054906101000a900473ffffffffffffffffffffffffffffffffffffffff1681565b6000806000905060005b60018054905081101561028d57816001828154811061023c5761023b610ac3565b5b9060005260206000209060020201600101541115610280576001818154811061026857610267610ac3565b5b90600052602060002090600202016001015491508092505b808060010191505061021a565b505090565b60026020528060005260406000206000915090505481565b60006102b533610391565b9050818110156102fa576040517f08c379a00000000000000000000000000000000000000000000000000000000081526004016102f190610b75565b60405180910390fd5b81600260003373ffffffffffffffffffffffffffffffffffffffff1673ffffffffffffffffffffffffffffffffffffffff16815260200190815260200160002060008282546103499190610bc4565b92505081905550816001848154811061036557610364610ac3565b5b906000526020600020906002020160010160008282546103859190610bc4565b92505081905550505050565b60008060008054906101000a900473ffffffffffffffffffffffffffffffffffffffff1673ffffffffffffffffffffffffffffffffffffffff16633a46b1a8846003546040518363ffffffff1660e01b81526004016103f1929190610c07565b602060405180830381865afa15801561040e573d6000803e3d6000fd5b505050506040513d601f19601f820116820180604052508101906104329190610c45565b90506000600260008573ffffffffffffffffffffffffffffffffffffffff1673ffffffffffffffffffffffffffffffffffffffff16815260200190815260200160002054905080826104849190610c72565b92506104c56040518060400160405280600e81526020017f566f74657220616464726573733a0000000000000000000000000000000000008152508561066e565b6105046040518060400160405280600b81526020017f5061737420766f7465733a0000000000000000000000000000000000000000008152508361070a565b6105436040518060400160405280600c81526020017f5370656e7420766f7465733a00000000000000000000000000000000000000008152508261070a565b6105826040518060400160405280600b81526020017f566f746520706f7765723a0000000000000000000000000000000000000000008152508461070a565b5050919050565b600080610594610210565b905060006001905060005b6001805490508110156105f0576000600182815481106105c2576105c1610ac3565b5b90600052602060002090600202016001015411156105e357600091506105f0565b808060010191505061059f565b508015610640576106356040518060400160405280601b81526020017f416c6c2070726f706f73616c732068617665203020766f7465732e00000000008152506107a6565b60009250505061066b565b6001828154811061065457610653610ac3565b5b906000526020600020906002020160000154925050505b90565b6107068282604051602401610684929190610d25565b6040516020818303038152906040527f319af333000000000000000000000000000000000000000000000000000000007bffffffffffffffffffffffffffffffffffffffffffffffffffffffff19166020820180517bffffffffffffffffffffffffffffffffffffffffffffffffffffffff838183161783525050505061083f565b5050565b6107a28282604051602401610720929190610d55565b6040516020818303038152906040527fb60e72cc000000000000000000000000000000000000000000000000000000007bffffffffffffffffffffffffffffffffffffffffffffffffffffffff19166020820180517bffffffffffffffffffffffffffffffffffffffffffffffffffffffff838183161783525050505061083f565b5050565b61083c816040516024016107ba9190610d85565b6040516020818303038152906040527f41304fac000000000000000000000000000000000000000000000000000000007bffffffffffffffffffffffffffffffffffffffffffffffffffffffff19166020820180517bffffffffffffffffffffffffffffffffffffffffffffffffffffffff838183161783525050505061083f565b50565b6108568161084e61085961087a565b63ffffffff16565b50565b60006a636f6e736f6c652e6c6f679050600080835160208501845afa505050565b610885819050919050565b61088d610da7565b565b600080fd5b6000819050919050565b6108a781610894565b81146108b257600080fd5b50565b6000813590506108c48161089e565b92915050565b6000602082840312156108e0576108df61088f565b5b60006108ee848285016108b5565b91505092915050565b6000819050919050565b61090a816108f7565b82525050565b61091981610894565b82525050565b60006040820190506109346000830185610901565b6109416020830184610910565b9392505050565b600060208201905061095d6000830184610910565b92915050565b600073ffffffffffffffffffffffffffffffffffffffff82169050919050565b6000819050919050565b60006109a86109a361099e84610963565b610983565b610963565b9050919050565b60006109ba8261098d565b9050919050565b60006109cc826109af565b9050919050565b6109dc816109c1565b82525050565b60006020820190506109f760008301846109d3565b92915050565b6000610a0882610963565b9050919050565b610a18816109fd565b8114610a2357600080fd5b50565b600081359050610a3581610a0f565b92915050565b600060208284031215610a5157610a5061088f565b5b6000610a5f84828501610a26565b91505092915050565b60008060408385031215610a7f57610a7e61088f565b5b6000610a8d858286016108b5565b9250506020610a9e858286016108b5565b9150509250929050565b6000602082019050610abd6000830184610901565b92915050565b7f4e487b7100000000000000000000000000000000000000000000000000000000600052603260045260246000fd5b600082825260208201905092915050565b7f4572726f723a206e6f7420656e6f75676820766f746520706f77657220746f2060008201527f766f746500000000000000000000000000000000000000000000000000000000602082015250565b6000610b5f602483610af2565b9150610b6a82610b03565b604082019050919050565b60006020820190508181036000830152610b8e81610b52565b9050919050565b7f4e487b7100000000000000000000000000000000000000000000000000000000600052601160045260246000fd5b6000610bcf82610894565b9150610bda83610894565b9250828201905080821115610bf257610bf1610b95565b5b92915050565b610c01816109fd565b82525050565b6000604082019050610c1c6000830185610bf8565b610c296020830184610910565b9392505050565b600081519050610c3f8161089e565b92915050565b600060208284031215610c5b57610c5a61088f565b5b6000610c6984828501610c30565b91505092915050565b6000610c7d82610894565b9150610c8883610894565b9250828203905081811115610ca057610c9f610b95565b5b92915050565b600081519050919050565b60005b83811015610ccf578082015181840152602081019050610cb4565b60008484015250505050565b6000601f19601f8301169050919050565b6000610cf782610ca6565b610d018185610af2565b9350610d11818560208601610cb1565b610d1a81610cdb565b840191505092915050565b60006040820190508181036000830152610d3f8185610cec565b9050610d4e6020830184610bf8565b9392505050565b60006040820190508181036000830152610d6f8185610cec565b9050610d7e6020830184610910565b9392505050565b60006020820190508181036000830152610d9f8184610cec565b905092915050565b7f4e487b7100000000000000000000000000000000000000000000000000000000600052605160045260246000fdfea264697066735822122074d1e7408d512c6e862dd94f52ec6ea13c4dc6ca6408d0a95500e931972f663064736f6c634300081b0033",
    "linkReferences": {},
    "deployedLinkReferences": {}
}